{
  "contractName": "Flights",
  "abi": [
    {
      "constant": true,
      "inputs": [
        {
          "name": "",
          "type": "uint256"
        }
      ],
      "name": "flights",
      "outputs": [
        {
          "name": "flight_in",
          "type": "string"
        },
        {
          "name": "flight_out",
          "type": "string"
        },
        {
          "name": "total_price",
          "type": "uint256"
        },
        {
          "name": "price_per_adult",
          "type": "uint256"
        },
        {
          "name": "walletAddress",
          "type": "address"
        },
        {
          "name": "createdAt",
          "type": "uint256"
        },
        {
          "name": "updatedAt",
          "type": "uint256"
        }
      ],
      "payable": false,
      "stateMutability": "view",
      "type": "function"
    },
    {
      "constant": true,
      "inputs": [
        {
          "name": "",
          "type": "address"
        }
      ],
      "name": "flightsIds",
      "outputs": [
        {
          "name": "",
          "type": "uint256"
        }
      ],
      "payable": false,
      "stateMutability": "view",
      "type": "function"
    },
    {
      "inputs": [],
      "payable": false,
      "stateMutability": "nonpayable",
      "type": "constructor"
    },
    {
      "anonymous": false,
      "inputs": [
        {
          "indexed": false,
          "name": "id",
          "type": "uint256"
        }
      ],
      "name": "newFlightRegistered",
      "type": "event"
    },
    {
      "anonymous": false,
      "inputs": [
        {
          "indexed": false,
          "name": "id",
          "type": "uint256"
        }
      ],
      "name": "flightUpdateEvent",
      "type": "event"
    },
    {
      "constant": false,
      "inputs": [
        {
          "name": "flight_in",
          "type": "string"
        },
        {
          "name": "flight_out",
          "type": "string"
        },
        {
          "name": "total_price",
          "type": "uint256"
        },
        {
          "name": "price_per_adult",
          "type": "uint256"
        }
      ],
      "name": "registerFlight",
      "outputs": [
        {
          "name": "",
          "type": "uint256"
        }
      ],
      "payable": false,
      "stateMutability": "nonpayable",
      "type": "function"
    },
    {
      "constant": false,
      "inputs": [
        {
          "name": "newFlightIn",
          "type": "string"
        },
        {
          "name": "newFlightOut",
          "type": "string"
        },
        {
          "name": "newTotalPrice",
          "type": "uint256"
        },
        {
          "name": "newPricePerAdult",
          "type": "uint256"
        }
      ],
      "name": "updateFlight",
      "outputs": [
        {
          "name": "",
          "type": "uint256"
        }
      ],
      "payable": false,
      "stateMutability": "nonpayable",
      "type": "function"
    },
    {
      "constant": true,
      "inputs": [
        {
          "name": "id",
          "type": "uint256"
        }
      ],
      "name": "getFlightById",
      "outputs": [
        {
          "name": "",
          "type": "uint256"
        },
        {
          "name": "",
          "type": "string"
        },
        {
          "name": "",
          "type": "string"
        },
        {
          "name": "",
          "type": "uint256"
        },
        {
          "name": "",
          "type": "uint256"
        },
        {
          "name": "",
          "type": "address"
        },
        {
          "name": "",
          "type": "uint256"
        },
        {
          "name": "",
          "type": "uint256"
        }
      ],
      "payable": false,
      "stateMutability": "view",
      "type": "function"
    },
    {
      "constant": true,
      "inputs": [],
      "name": "getOwnProfile",
      "outputs": [
        {
          "name": "",
          "type": "uint256"
        },
        {
          "name": "",
          "type": "string"
        },
        {
          "name": "",
          "type": "string"
        },
        {
          "name": "",
          "type": "uint256"
        },
        {
          "name": "",
          "type": "uint256"
        },
        {
          "name": "",
          "type": "address"
        },
        {
          "name": "",
          "type": "uint256"
        },
        {
          "name": "",
          "type": "uint256"
        }
      ],
      "payable": false,
      "stateMutability": "view",
      "type": "function"
    },
    {
      "constant": true,
      "inputs": [],
      "name": "isRegistered",
      "outputs": [
        {
          "name": "",
          "type": "bool"
        }
      ],
      "payable": false,
      "stateMutability": "view",
      "type": "function"
    },
    {
      "constant": true,
      "inputs": [],
      "name": "totalFlights",
      "outputs": [
        {
          "name": "",
          "type": "uint256"
        }
      ],
      "payable": false,
      "stateMutability": "view",
      "type": "function"
    }
  ],
  "bytecode": "0x60806040523480156200001157600080fd5b506200005260006020604051908101604052806000815250602060405190810160405280600081525060008062000211640100000000026401000000009004565b50620000e4653333333333336040805190810160405280600381526020017f4c485200000000000000000000000000000000000000000000000000000000008152506040805190810160405280600381526020017f445542000000000000000000000000000000000000000000000000000000000081525061024e60d262000211640100000000026401000000009004565b5062000177651111111111116040805190810160405280600381526020017f424f5300000000000000000000000000000000000000000000000000000000008152506040805190810160405280600381526020017f4c4852000000000000000000000000000000000000000000000000000000000081525061024e61014362000211640100000000026401000000009004565b506200020a652222222222226040805190810160405280600381526020017f544f5200000000000000000000000000000000000000000000000000000000008152506040805190810160405280600381526020017f445542000000000000000000000000000000000000000000000000000000000081525061024e6101b262000211640100000000026401000000009004565b50620005e1565b60008060008060008973ffffffffffffffffffffffffffffffffffffffff1673ffffffffffffffffffffffffffffffffffffffff1681526020019081526020016000205491506000821415156200026757600080fd5b6001805490506000808a73ffffffffffffffffffffffffffffffffffffffff1673ffffffffffffffffffffffffffffffffffffffff1681526020019081526020016000208190555060018054809190600101620002c5919062000424565b905060e0604051908101604052808881526020018781526020018681526020018581526020018973ffffffffffffffffffffffffffffffffffffffff168152602001428152602001428152506001828154811015156200032157fe5b906000526020600020906007020160008201518160000190805190602001906200034d92919062000459565b5060208201518160010190805190602001906200036c92919062000459565b50604082015181600201556060820151816003015560808201518160040160006101000a81548173ffffffffffffffffffffffffffffffffffffffff021916908373ffffffffffffffffffffffffffffffffffffffff16021790555060a0820151816005015560c082015181600601559050507f681d90e2b85c936492bb847c3878b897feb95843c159038efa325b5124e233ef816040518082815260200191505060405180910390a1809250505095945050505050565b8154818355818111156200045457600702816007028360005260206000209182019101620004539190620004e0565b5b505050565b828054600181600116156101000203166002900490600052602060002090601f016020900481019282601f106200049c57805160ff1916838001178555620004cd565b82800160010185558215620004cd579182015b82811115620004cc578251825591602001919060010190620004af565b5b509050620004dc91906200056d565b5090565b6200056a91905b8082111562000566576000808201600062000503919062000595565b60018201600062000515919062000595565b600282016000905560038201600090556004820160006101000a81549073ffffffffffffffffffffffffffffffffffffffff02191690556005820160009055600682016000905550600701620004e7565b5090565b90565b6200059291905b808211156200058e57600081600090555060010162000574565b5090565b90565b50805460018160011615610100020316600290046000825580601f10620005bd5750620005de565b601f016020900490600052602060002090810190620005dd91906200056d565b5b50565b6111db80620005f16000396000f30060806040526004361061008e576000357c0100000000000000000000000000000000000000000000000000000000900463ffffffff16806308ab6e571461009357806315ccf70f1461016a57806322366844146102cb5780634bf02e7a146102fa578063a7954be914610325578063c6a48d25146103fc578063d1e2de7e14610564578063fd1b5158146105bb575b600080fd5b34801561009f57600080fd5b50610154600480360381019080803590602001908201803590602001908080601f0160208091040260200160405190810160405280939291908181526020018383808284378201915050505050509192919290803590602001908201803590602001908080601f0160208091040260200160405190810160405280939291908181526020018383808284378201915050505050509192919290803590602001909291908035906020019092919050505061070d565b6040518082815260200191505060405180910390f35b34801561017657600080fd5b5061019560048036038101908080359060200190929190505050610726565b6040518080602001806020018881526020018781526020018673ffffffffffffffffffffffffffffffffffffffff1673ffffffffffffffffffffffffffffffffffffffff16815260200185815260200184815260200183810383528a818151815260200191508051906020019080838360005b83811015610223578082015181840152602081019050610208565b50505050905090810190601f1680156102505780820380516001836020036101000a031916815260200191505b50838103825289818151815260200191508051906020019080838360005b8381101561028957808201518184015260208101905061026e565b50505050905090810190601f1680156102b65780820380516001836020036101000a031916815260200191505b50995050505050505050505060405180910390f35b3480156102d757600080fd5b506102e06108c7565b604051808215151515815260200191505060405180910390f35b34801561030657600080fd5b5061030f610910565b6040518082815260200191505060405180910390f35b34801561033157600080fd5b506103e6600480360381019080803590602001908201803590602001908080601f0160208091040260200160405190810160405280939291908181526020018383808284378201915050505050509192919290803590602001908201803590602001908080601f0160208091040260200160405190810160405280939291908181526020018383808284378201915050505050509192919290803590602001909291908035906020019092919050505061091d565b6040518082815260200191505060405180910390f35b34801561040857600080fd5b5061042760048036038101908080359060200190929190505050610a26565b6040518089815260200180602001806020018881526020018781526020018673ffffffffffffffffffffffffffffffffffffffff1673ffffffffffffffffffffffffffffffffffffffff16815260200185815260200184815260200183810383528a818151815260200191508051906020019080838360005b838110156104bb5780820151818401526020810190506104a0565b50505050905090810190601f1680156104e85780820380516001836020036101000a031916815260200191505b50838103825289818151815260200191508051906020019080838360005b83811015610521578082015181840152602081019050610506565b50505050905090810190601f16801561054e5780820380516001836020036101000a031916815260200191505b509a505050505050505050505060405180910390f35b34801561057057600080fd5b506105a5600480360381019080803573ffffffffffffffffffffffffffffffffffffffff169060200190929190505050610c8d565b6040518082815260200191505060405180910390f35b3480156105c757600080fd5b506105d0610ca5565b6040518089815260200180602001806020018881526020018781526020018673ffffffffffffffffffffffffffffffffffffffff1673ffffffffffffffffffffffffffffffffffffffff16815260200185815260200184815260200183810383528a818151815260200191508051906020019080838360005b83811015610664578082015181840152602081019050610649565b50505050905090810190601f1680156106915780820380516001836020036101000a031916815260200191505b50838103825289818151815260200191508051906020019080838360005b838110156106ca5780820151818401526020810190506106af565b50505050905090810190601f1680156106f75780820380516001836020036101000a031916815260200191505b509a505050505050505050505060405180910390f35b600061071c3386868686610d2b565b9050949350505050565b60018181548110151561073557fe5b9060005260206000209060070201600091509050806000018054600181600116156101000203166002900480601f0160208091040260200160405190810160405280929190818152602001828054600181600116156101000203166002900480156107e15780601f106107b6576101008083540402835291602001916107e1565b820191906000526020600020905b8154815290600101906020018083116107c457829003601f168201915b505050505090806001018054600181600116156101000203166002900480601f01602080910402602001604051908101604052809291908181526020018280546001816001161561010002031660029004801561087f5780601f106108545761010080835404028352916020019161087f565b820191906000526020600020905b81548152906001019060200180831161086257829003601f168201915b5050505050908060020154908060030154908060040160009054906101000a900473ffffffffffffffffffffffffffffffffffffffff16908060050154908060060154905087565b6000806000803373ffffffffffffffffffffffffffffffffffffffff1673ffffffffffffffffffffffffffffffffffffffff168152602001908152602001600020541415905090565b6000600180549050905090565b600080600061092a6108c7565b151561093557600080fd5b6000803373ffffffffffffffffffffffffffffffffffffffff1673ffffffffffffffffffffffffffffffffffffffff16815260200190815260200160002054915060018281548110151561098557fe5b90600052602060002090600702019050868160000190805190602001906109ad929190610f36565b50858160010190805190602001906109c6929190610f36565b508481600201819055508381600301819055504281600601819055507f2aafa371b032e1f633f6d9569b010e665a8c3e56c7994079895698c4accc5667826040518082815260200191505060405180910390a18192505050949350505050565b60006060806000806000806000610a3b610fb6565b60008a1180610a4f57506001805490508a11155b1515610a5a57600080fd5b60018a815481101515610a6957fe5b906000526020600020906007020160e06040519081016040529081600082018054600181600116156101000203166002900480601f016020809104026020016040519081016040528092919081815260200182805460018160011615610100020316600290048015610b1c5780601f10610af157610100808354040283529160200191610b1c565b820191906000526020600020905b815481529060010190602001808311610aff57829003601f168201915b50505050508152602001600182018054600181600116156101000203166002900480601f016020809104026020016040519081016040528092919081815260200182805460018160011615610100020316600290048015610bbe5780601f10610b9357610100808354040283529160200191610bbe565b820191906000526020600020905b815481529060010190602001808311610ba157829003601f168201915b5050505050815260200160028201548152602001600382015481526020016004820160009054906101000a900473ffffffffffffffffffffffffffffffffffffffff1673ffffffffffffffffffffffffffffffffffffffff1673ffffffffffffffffffffffffffffffffffffffff16815260200160058201548152602001600682015481525050905089816000015182602001518360400151846060015185608001518660a001518760c001518696508595509850985098509850985098509850985050919395975091939597565b60006020528060005260406000206000915090505481565b6000606080600080600080600080610cbb6108c7565b1515610cc657600080fd5b6000803373ffffffffffffffffffffffffffffffffffffffff1673ffffffffffffffffffffffffffffffffffffffff168152602001908152602001600020549050610d1081610a26565b98509850985098509850985098509850509091929394959697565b60008060008060008973ffffffffffffffffffffffffffffffffffffffff1673ffffffffffffffffffffffffffffffffffffffff168152602001908152602001600020549150600082141515610d8057600080fd5b6001805490506000808a73ffffffffffffffffffffffffffffffffffffffff1673ffffffffffffffffffffffffffffffffffffffff1681526020019081526020016000208190555060018054809190600101610ddc919061100a565b905060e0604051908101604052808881526020018781526020018681526020018581526020018973ffffffffffffffffffffffffffffffffffffffff16815260200142815260200142815250600182815481101515610e3757fe5b90600052602060002090600702016000820151816000019080519060200190610e6192919061103c565b506020820151816001019080519060200190610e7e92919061103c565b50604082015181600201556060820151816003015560808201518160040160006101000a81548173ffffffffffffffffffffffffffffffffffffffff021916908373ffffffffffffffffffffffffffffffffffffffff16021790555060a0820151816005015560c082015181600601559050507f681d90e2b85c936492bb847c3878b897feb95843c159038efa325b5124e233ef816040518082815260200191505060405180910390a1809250505095945050505050565b828054600181600116156101000203166002900490600052602060002090601f016020900481019282601f10610f7757805160ff1916838001178555610fa5565b82800160010185558215610fa5579182015b82811115610fa4578251825591602001919060010190610f89565b5b509050610fb291906110bc565b5090565b60e06040519081016040528060608152602001606081526020016000815260200160008152602001600073ffffffffffffffffffffffffffffffffffffffff16815260200160008152602001600081525090565b8154818355818111156110375760070281600702836000526020600020918201910161103691906110e1565b5b505050565b828054600181600116156101000203166002900490600052602060002090601f016020900481019282601f1061107d57805160ff19168380011785556110ab565b828001600101855582156110ab579182015b828111156110aa57825182559160200191906001019061108f565b5b5090506110b891906110bc565b5090565b6110de91905b808211156110da5760008160009055506001016110c2565b5090565b90565b61116491905b8082111561116057600080820160006111009190611167565b6001820160006111109190611167565b600282016000905560038201600090556004820160006101000a81549073ffffffffffffffffffffffffffffffffffffffff021916905560058201600090556006820160009055506007016110e7565b5090565b90565b50805460018160011615610100020316600290046000825580601f1061118d57506111ac565b601f0160209004906000526020600020908101906111ab91906110bc565b5b505600a165627a7a723058204dccfbcdefb9e5d19f9840f4dfee949e05512e7fd5c6aa5ebd8fd5df14021f1b0029",
  "source": "pragma solidity ^0.4.21;\n\n\ncontract Flights {\n    // data structure that stores a flight\n    struct Flight {\n        string flight_in;\n        string flight_out;\n        uint total_price;\n        uint price_per_adult;\n        address walletAddress;\n        uint createdAt;\n        uint updatedAt;\n    }\n\n    // it maps the flight's wallet address with the flight ID\n    mapping (address => uint) public flightsIds;\n\n    // Array of Flight that holds the list of flights and their details\n    Flight[] public flights;\n\n    // event fired when a new flight is registered\n    event newFlightRegistered(uint id);\n\n    // event fired when the flight is updated\n    event flightUpdateEvent(uint id);\n\n\n\n    // Modifier: check if the caller of the smart contract is registered\n    modifier checkSenderIsRegistered {\n    \trequire(isRegistered());\n    \t_;\n    }\n\n\n\n    /**\n     * Constructor function\n     */\n    constructor() public {\n        // NOTE: the first flight MUST be empty\n        addFlight(0x0, \"\", \"\", 0, 0);\n\n        // Some dummy data\n        addFlight(0x333333333333, \"LHR\", \"DUB\", 590, 210);\n        addFlight(0x111111111111, \"BOS\", \"LHR\", 590, 323);\n        addFlight(0x222222222222, \"TOR\", \"DUB\", 590, 434);\n    }\n\n\n\n    /**\n     * Function to register a new flight.\n     *\n     * @param flight_in         Going flight\n     * @param flight_out        Return flight\n     * @param total_price       Total Price\n     * @param price_per_adult   Price Per Adult\n     */\n    function registerFlight(string flight_in, string flight_out, uint total_price, uint price_per_adult) public returns(uint)\n    {\n    \treturn addFlight(msg.sender, flight_in, flight_out, total_price, price_per_adult);\n    }\n\n\n\n    /**\n     * Add a new flight. This function must be private because a flight\n     * cannot insert another flight on behalf of someone else.\n     *\n     * @param wAddr \t\t    Address wallet of the flight\n     * @param flight_in         Going flight\n     * @param flight_out        Return flight\n     * @param total_price       Total Price\n     * @param price_per_adult   Price Per Adult\n    */\n\n    function addFlight(address wAddr, string flight_in, string flight_out, uint total_price, uint price_per_adult) private\n    returns(uint)\n    {\n        // checking if the flight is already registered\n        uint flightId = flightsIds[wAddr];\n        require (flightId == 0);\n\n        // associating the flight wallet address with the new ID\n        flightsIds[wAddr] = flights.length;\n        uint newFlightId = flights.length++;\n\n        // storing the new flight details\n        flights[newFlightId] = Flight({\n            flight_in: flight_in,\n            flight_out: flight_out,\n            total_price: total_price,\n            price_per_adult: price_per_adult,\n            walletAddress: wAddr,\n            createdAt: now,\n            updatedAt: now\n        });\n\n        // emitting the event that a new flight has been registered\n        emit newFlightRegistered(newFlightId);\n\n        return newFlightId;\n    }\n\n\n    /**\n     * Update the flight confirmation of the caller of this method.\n     * Note: the flight can modify only his own confirmation.\n     *\n     * @param newFlightIn\t    The new going flight\n     * @param newFlightOut \t    The new return flight\n     * @param newTotalPrice     The new total price\n     * @param newPricePerAdult  The new price per adult\n     *\n     */\n    function updateFlight(string newFlightIn, string newFlightOut, uint newTotalPrice, uint newPricePerAdult) checkSenderIsRegistered public\n    returns(uint)\n    {\n    \t// A flight can modify only their own confirmation.\n    \tuint flightId = flightsIds[msg.sender];\n\n    \tFlight storage flight = flights[flightId];\n\n    \tflight.flight_in = newFlightIn;\n    \tflight.flight_out = newFlightOut;\n        flight.total_price = newTotalPrice;\n        flight.price_per_adult = newPricePerAdult;\n    \tflight.updatedAt = now;\n\n    \temit flightUpdateEvent(flightId);\n\n    \treturn flightId;\n    }\n\n\n    /**\n     * Get the flight's confirmation information.\n     *\n     * @param id \tThe ID of the flight stored on the blockchain.\n     */\n    function getFlightById(uint id) public view\n    returns(\n    \tuint,\n    \tstring,\n    \tstring,\n        uint,\n        uint,\n    \taddress,\n    \tuint,\n    \tuint\n    ) {\n    \t// checking if the ID is valid\n    \trequire( (id > 0) || (id <= flights.length) );\n\n    \tFlight memory i = flights[id];\n\n    \treturn (\n    \t\tid,\n    \t\ti.flight_in,\n    \t\ti.flight_out,\n            i.total_price,\n            i.price_per_adult,\n    \t\ti.walletAddress,\n    \t\ti.createdAt,\n    \t\ti.updatedAt\n    \t);\n    }\n\n    /**\n     * Return the confirmation information of the caller.\n     */\n    function getOwnProfile() checkSenderIsRegistered public view\n    returns(\n    \tuint,\n    \tstring,\n    \tstring,\n        uint,\n        uint,\n    \taddress,\n    \tuint,\n    \tuint\n    ) {\n    \tuint id = flightsIds[msg.sender];\n\n    \treturn getFlightById(id);\n    }\n\n\n\n\n    /**\n     * Check if the flight that is calling the smart contract is registered.\n     */\n    function isRegistered() public view returns (bool)\n    {\n    \treturn (flightsIds[msg.sender] != 0);\n    }\n\n\n\n    /**\n     * Return the number of total registered flights.\n     */\n    function totalFlights() public view returns (uint)\n    {\n        return flights.length;\n    }\n\n}",
  "sourcePath": "/Users/yameste/Sites/blockair-dapp/contracts/Flights.sol",
  "compiler": {
    "name": "solc",
    "version": "0.4.24+commit.e67f0147.Emscripten.clang"
  },
  "schemaVersion": "2.0.1",
  "updatedAt": "2018-08-21T08:39:24.420Z"
}